:040000009DEF3EF042
:107CD2007F704041CA949D921200016E0150FB0BCD
:107CE200CA6E000ECC6E9E9201AE02D09D8201D071
:107CF2009D92CA8412006BEC3EF0010ECB6E040E14
:107D02006EEC3EF0100E026E940EE82EFED7022E9E
:107D1200FCD700D01200C69A010E016E800E026ED0
:107D2200030EECEC3EF0100E046E940EE82EFED71D
:107D3200042EFCD700D012000F6AD20EF66E7C0E13
:107D4200F76E000EF86E00EE0BF010EE04F0090074
:107D5200F5CFEEFFE550E150FAE1000EF86E0001BA
:107D62007AEF3FF092909292929492969298929A8F
:107D720093809392939493969398938A938C938EF1
:107D8200949094929494949C948E100E016E940EFE
:107D9200E82EFED7012EFCD700D012004F0EAB16F4
:107DA200AC9ACF0E9D165C0E076E000E066E030E89
:107DB200056E05C001F006C002F0075042EC3FF02C
:107DC2009D8AB886100E046E940EE82EFED7042EFD
:107DD200FCD700D01200036E3F0EC716000EC66E0F
:107DE2000350C6120250C71205D0C78C13D0C78CDD
:107DF200C68810D00150000AD8B4F7D7020AD8B406
:107E0200F6D7010AD8B4F4D705D0928A93820AD061
:107E1200939208D00350040AD8B4F7D7010AD8B411
:107E2200F5D7F6D79380949EC68A12000DD00A0E1B
:107E320009D0090E07D0000E05D00C0E03D00F0E8C
:107E420001D0080E896E1CD001C003F002C004F0FC
:107E52000450000AD8A414D00350000AD8B4F1D7B1
:107E6200010AD8B4E4D7030AD8B4E3D7010AD8B4D4
:107E7200E2D7070AD8B4E1D7010AD8B4E0D700D0D4
:107E82001200036E000EAC6E000EAB6E03A002D0A9
:107E9200AC8800D003A203D0AC8CAB8C00D003A47E
:107EA20002D0AC8E00D003A602D0AB8802D0AB8A3F
:107EB20000D003B8AC849E9803AA02D0AB8600D04F
:107EC20003AC02D09D8A01D09D9A9E9A03AE02D045
:107ED2009D8801D09D9801C0AFFF0250B06EAC8A60
:107EE200AB8E949C948EACB8ACBE02D0948C00D075
:107EF20012000F0EC16E010E926E010E936E010EF4
:107F0200946ECFEC3EF07CEC3EF08CEC3EF0B3ECA9
:107F12003EF0000E096E00D08B909EAA04D0AECF28
:107F22000CF09E9A00D0730E0C18D8A4F5D7000E50
:107F32000F6E0FC001F0026A17EC3FF0100E086ED0
:107F4200940EE82EFED7082EFCD700D000D00F509A
:107F5200D8B402D006D000D0ACA2FED7410EAD6E8E
:107F620000D08B70898A080EE82EFED7C9CF0AF09E
:107F7200899A000EC96E00D0C7A0FED7C9CF0DF0F6
:107F8200000EC96E00D0C7A0FED7C9CF0EF00D50AB
:107F92000B140D6E0F280F6E0FC001F0026A17EC62
:107FA2003FF000D0ACA2FED70DC0ADFF00D0ACA216
:107FB200FED70EC0ADFF8B70040E0F18D8A4C7D722
:107FC200000E0F6E0FC001F0026A17EC3FF000D0F6
:107FD200ACA2FED75A0EAD6E2C0EE82EFED79EAA8C
:107FE20004D0AECF0CF09E9A00D0700E0C18D8B40C
:0E7FF20093D7ADD791D7ABD78FD700EF00F064
:020000040020DA
:08000000FFFFFFFFFFFFFFFF00
:020000040030CA
:0E000000040E191EFF0185FF0FC00FE00F4018
:00000001FF
